{
  "_format": "hh-sol-artifact-1",
  "contractName": "TheCoolestToken",
  "sourceName": "contracts/TheCoolestToken.sol",
  "abi": [
    {
      "anonymous": false,
      "inputs": [
        {
          "indexed": true,
          "internalType": "address",
          "name": "owner",
          "type": "address"
        },
        {
          "indexed": true,
          "internalType": "address",
          "name": "approved",
          "type": "address"
        },
        {
          "indexed": true,
          "internalType": "uint256",
          "name": "tokenId",
          "type": "uint256"
        }
      ],
      "name": "Approval",
      "type": "event"
    },
    {
      "anonymous": false,
      "inputs": [
        {
          "indexed": true,
          "internalType": "address",
          "name": "owner",
          "type": "address"
        },
        {
          "indexed": true,
          "internalType": "address",
          "name": "operator",
          "type": "address"
        },
        {
          "indexed": false,
          "internalType": "bool",
          "name": "approved",
          "type": "bool"
        }
      ],
      "name": "ApprovalForAll",
      "type": "event"
    },
    {
      "anonymous": false,
      "inputs": [
        {
          "indexed": true,
          "internalType": "address",
          "name": "from",
          "type": "address"
        },
        {
          "indexed": true,
          "internalType": "address",
          "name": "to",
          "type": "address"
        },
        {
          "indexed": true,
          "internalType": "uint256",
          "name": "tokenId",
          "type": "uint256"
        }
      ],
      "name": "Transfer",
      "type": "event"
    },
    {
      "inputs": [
        {
          "internalType": "address",
          "name": "to",
          "type": "address"
        },
        {
          "internalType": "uint256",
          "name": "tokenId",
          "type": "uint256"
        }
      ],
      "name": "approve",
      "outputs": [],
      "stateMutability": "nonpayable",
      "type": "function"
    },
    {
      "inputs": [
        {
          "internalType": "address",
          "name": "owner",
          "type": "address"
        }
      ],
      "name": "balanceOf",
      "outputs": [
        {
          "internalType": "uint256",
          "name": "",
          "type": "uint256"
        }
      ],
      "stateMutability": "view",
      "type": "function"
    },
    {
      "inputs": [
        {
          "internalType": "uint256",
          "name": "_tokenID",
          "type": "uint256"
        }
      ],
      "name": "buyTCT",
      "outputs": [],
      "stateMutability": "payable",
      "type": "function"
    },
    {
      "inputs": [
        {
          "internalType": "string",
          "name": "_name",
          "type": "string"
        },
        {
          "internalType": "uint256",
          "name": "_tokenID",
          "type": "uint256"
        }
      ],
      "name": "createTCT",
      "outputs": [],
      "stateMutability": "nonpayable",
      "type": "function"
    },
    {
      "inputs": [
        {
          "internalType": "uint256",
          "name": "tokenId",
          "type": "uint256"
        }
      ],
      "name": "getApproved",
      "outputs": [
        {
          "internalType": "address",
          "name": "",
          "type": "address"
        }
      ],
      "stateMutability": "view",
      "type": "function"
    },
    {
      "inputs": [
        {
          "internalType": "address",
          "name": "owner",
          "type": "address"
        },
        {
          "internalType": "address",
          "name": "operator",
          "type": "address"
        }
      ],
      "name": "isApprovedForAll",
      "outputs": [
        {
          "internalType": "bool",
          "name": "",
          "type": "bool"
        }
      ],
      "stateMutability": "view",
      "type": "function"
    },
    {
      "inputs": [
        {
          "internalType": "uint256",
          "name": "_tokenID",
          "type": "uint256"
        }
      ],
      "name": "lookUpTCTInfo",
      "outputs": [
        {
          "internalType": "string",
          "name": "",
          "type": "string"
        }
      ],
      "stateMutability": "view",
      "type": "function"
    },
    {
      "inputs": [],
      "name": "name",
      "outputs": [
        {
          "internalType": "string",
          "name": "",
          "type": "string"
        }
      ],
      "stateMutability": "view",
      "type": "function"
    },
    {
      "inputs": [
        {
          "internalType": "uint256",
          "name": "tokenId",
          "type": "uint256"
        }
      ],
      "name": "ownerOf",
      "outputs": [
        {
          "internalType": "address",
          "name": "",
          "type": "address"
        }
      ],
      "stateMutability": "view",
      "type": "function"
    },
    {
      "inputs": [
        {
          "internalType": "uint256",
          "name": "_tokenID",
          "type": "uint256"
        },
        {
          "internalType": "uint256",
          "name": "_price",
          "type": "uint256"
        }
      ],
      "name": "putTCTUpForSale",
      "outputs": [],
      "stateMutability": "nonpayable",
      "type": "function"
    },
    {
      "inputs": [
        {
          "internalType": "address",
          "name": "from",
          "type": "address"
        },
        {
          "internalType": "address",
          "name": "to",
          "type": "address"
        },
        {
          "internalType": "uint256",
          "name": "tokenId",
          "type": "uint256"
        }
      ],
      "name": "safeTransferFrom",
      "outputs": [],
      "stateMutability": "nonpayable",
      "type": "function"
    },
    {
      "inputs": [
        {
          "internalType": "address",
          "name": "from",
          "type": "address"
        },
        {
          "internalType": "address",
          "name": "to",
          "type": "address"
        },
        {
          "internalType": "uint256",
          "name": "tokenId",
          "type": "uint256"
        },
        {
          "internalType": "bytes",
          "name": "_data",
          "type": "bytes"
        }
      ],
      "name": "safeTransferFrom",
      "outputs": [],
      "stateMutability": "nonpayable",
      "type": "function"
    },
    {
      "inputs": [
        {
          "internalType": "address",
          "name": "operator",
          "type": "address"
        },
        {
          "internalType": "bool",
          "name": "approved",
          "type": "bool"
        }
      ],
      "name": "setApprovalForAll",
      "outputs": [],
      "stateMutability": "nonpayable",
      "type": "function"
    },
    {
      "inputs": [
        {
          "internalType": "bytes4",
          "name": "interfaceId",
          "type": "bytes4"
        }
      ],
      "name": "supportsInterface",
      "outputs": [
        {
          "internalType": "bool",
          "name": "",
          "type": "bool"
        }
      ],
      "stateMutability": "view",
      "type": "function"
    },
    {
      "inputs": [],
      "name": "symbol",
      "outputs": [
        {
          "internalType": "string",
          "name": "",
          "type": "string"
        }
      ],
      "stateMutability": "view",
      "type": "function"
    },
    {
      "inputs": [
        {
          "internalType": "uint256",
          "name": "",
          "type": "uint256"
        }
      ],
      "name": "tokenID2Info",
      "outputs": [
        {
          "internalType": "string",
          "name": "name",
          "type": "string"
        }
      ],
      "stateMutability": "view",
      "type": "function"
    },
    {
      "inputs": [
        {
          "internalType": "uint256",
          "name": "",
          "type": "uint256"
        }
      ],
      "name": "tokenMinted",
      "outputs": [
        {
          "internalType": "bool",
          "name": "",
          "type": "bool"
        }
      ],
      "stateMutability": "view",
      "type": "function"
    },
    {
      "inputs": [
        {
          "internalType": "uint256",
          "name": "tokenId",
          "type": "uint256"
        }
      ],
      "name": "tokenURI",
      "outputs": [
        {
          "internalType": "string",
          "name": "",
          "type": "string"
        }
      ],
      "stateMutability": "view",
      "type": "function"
    },
    {
      "inputs": [
        {
          "internalType": "uint256",
          "name": "",
          "type": "uint256"
        }
      ],
      "name": "tokensForSale",
      "outputs": [
        {
          "internalType": "uint256",
          "name": "",
          "type": "uint256"
        }
      ],
      "stateMutability": "view",
      "type": "function"
    },
    {
      "inputs": [
        {
          "internalType": "address",
          "name": "from",
          "type": "address"
        },
        {
          "internalType": "address",
          "name": "to",
          "type": "address"
        },
        {
          "internalType": "uint256",
          "name": "tokenId",
          "type": "uint256"
        }
      ],
      "name": "transferFrom",
      "outputs": [],
      "stateMutability": "nonpayable",
      "type": "function"
    },
    {
      "inputs": [
        {
          "internalType": "address",
          "name": "_to1",
          "type": "address"
        },
        {
          "internalType": "uint256",
          "name": "_tokenID",
          "type": "uint256"
        }
      ],
      "name": "transferTCT",
      "outputs": [],
      "stateMutability": "nonpayable",
      "type": "function"
    }
  ],
  "bytecode": "0x60806040523480156200001157600080fd5b506040518060400160405280601181526020017f54686520436f6f6c65737420546f6b656e0000000000000000000000000000008152506040518060400160405280600381526020017f5443540000000000000000000000000000000000000000000000000000000000815250816000908051906020019062000096929190620000b8565b508060019080519060200190620000af929190620000b8565b505050620001cd565b828054620000c69062000168565b90600052602060002090601f016020900481019282620000ea576000855562000136565b82601f106200010557805160ff191683800117855562000136565b8280016001018555821562000136579182015b828111156200013557825182559160200191906001019062000118565b5b50905062000145919062000149565b5090565b5b80821115620001645760008160009055506001016200014a565b5090565b600060028204905060018216806200018157607f821691505b602082108114156200019857620001976200019e565b5b50919050565b7f4e487b7100000000000000000000000000000000000000000000000000000000600052602260045260246000fd5b61316a80620001dd6000396000f3fe60806040526004361061012a5760003560e01c806370a08231116100ab578063a22cb4651161006f578063a22cb46514610419578063b7a84ff214610442578063b88d4fde1461046b578063c87b56dd14610494578063e985e9c5146104d1578063ff4078d31461050e5761012a565b806370a08231146102fa57806387b374681461033757806395d89b41146103745780639b9042be1461039f578063a189778f146103dc5761012a565b806323b872dd116100f257806323b872dd14610226578063376e754b1461024f57806341a18f411461026b57806342842e0e146102945780636352211e146102bd5761012a565b806301ffc9a71461012f57806306fdde031461016c578063081812fc14610197578063095ea7b3146101d4578063096e2552146101fd575b600080fd5b34801561013b57600080fd5b50610156600480360381019061015191906120af565b61054b565b604051610163919061258b565b60405180910390f35b34801561017857600080fd5b5061018161062d565b60405161018e91906125a6565b60405180910390f35b3480156101a357600080fd5b506101be60048036038101906101b99190612155565b6106bf565b6040516101cb9190612524565b60405180910390f35b3480156101e057600080fd5b506101fb60048036038101906101f69190612073565b610744565b005b34801561020957600080fd5b50610224600480360381019061021f9190612073565b61085c565b005b34801561023257600080fd5b5061024d60048036038101906102489190611f6d565b6108b1565b005b61026960048036038101906102649190612155565b610911565b005b34801561027757600080fd5b50610292600480360381019061028d9190612101565b610a87565b005b3480156102a057600080fd5b506102bb60048036038101906102b69190611f6d565b610b6a565b005b3480156102c957600080fd5b506102e460048036038101906102df9190612155565b610b8a565b6040516102f19190612524565b60405180910390f35b34801561030657600080fd5b50610321600480360381019061031c9190611f08565b610c3c565b60405161032e9190612808565b60405180910390f35b34801561034357600080fd5b5061035e60048036038101906103599190612155565b610cf4565b60405161036b9190612808565b60405180910390f35b34801561038057600080fd5b50610389610d0c565b60405161039691906125a6565b60405180910390f35b3480156103ab57600080fd5b506103c660048036038101906103c19190612155565b610d9e565b6040516103d391906125a6565b60405180910390f35b3480156103e857600080fd5b5061040360048036038101906103fe9190612155565b610e44565b60405161041091906125a6565b60405180910390f35b34801561042557600080fd5b50610440600480360381019061043b9190612037565b610eec565b005b34801561044e57600080fd5b506104696004803603810190610464919061217e565b610f02565b005b34801561047757600080fd5b50610492600480360381019061048d9190611fbc565b610f94565b005b3480156104a057600080fd5b506104bb60048036038101906104b69190612155565b610ff6565b6040516104c891906125a6565b60405180910390f35b3480156104dd57600080fd5b506104f860048036038101906104f39190611f31565b61109d565b604051610505919061258b565b60405180910390f35b34801561051a57600080fd5b5061053560048036038101906105309190612155565b611131565b604051610542919061258b565b60405180910390f35b60007f80ac58cd000000000000000000000000000000000000000000000000000000007bffffffffffffffffffffffffffffffffffffffffffffffffffffffff1916827bffffffffffffffffffffffffffffffffffffffffffffffffffffffff1916148061061657507f5b5e139f000000000000000000000000000000000000000000000000000000007bffffffffffffffffffffffffffffffffffffffffffffffffffffffff1916827bffffffffffffffffffffffffffffffffffffffffffffffffffffffff1916145b80610626575061062582611151565b5b9050919050565b60606000805461063c90612a5e565b80601f016020809104026020016040519081016040528092919081815260200182805461066890612a5e565b80156106b55780601f1061068a576101008083540402835291602001916106b5565b820191906000526020600020905b81548152906001019060200180831161069857829003601f168201915b5050505050905090565b60006106ca826111bb565b610709576040517f08c379a000000000000000000000000000000000000000000000000000000000815260040161070090612728565b60405180910390fd5b6004600083815260200190815260200160002060009054906101000a900473ffffffffffffffffffffffffffffffffffffffff169050919050565b600061074f82610b8a565b90508073ffffffffffffffffffffffffffffffffffffffff168373ffffffffffffffffffffffffffffffffffffffff1614156107c0576040517f08c379a00000000000000000000000000000000000000000000000000000000081526004016107b790612788565b60405180910390fd5b8073ffffffffffffffffffffffffffffffffffffffff166107df611227565b73ffffffffffffffffffffffffffffffffffffffff16148061080e575061080d81610808611227565b61109d565b5b61084d576040517f08c379a0000000000000000000000000000000000000000000000000000000008152600401610844906126a8565b60405180910390fd5b610857838361122f565b505050565b600061086782610b8a565b90508073ffffffffffffffffffffffffffffffffffffffff163373ffffffffffffffffffffffffffffffffffffffff16146108a157600080fd5b6108ac8184846108b1565b505050565b6108c26108bc611227565b826112e8565b610901576040517f08c379a00000000000000000000000000000000000000000000000000000000081526004016108f8906127a8565b60405180910390fd5b61090c8383836113c6565b505050565b6000600860008381526020019081526020016000205411610967576040517f08c379a000000000000000000000000000000000000000000000000000000000815260040161095e90612628565b60405180910390fd5b600060086000838152602001908152602001600020549050600061098a83610b8a565b9050813410156109cf576040517f08c379a00000000000000000000000000000000000000000000000000000000081526004016109c6906127e8565b60405180910390fd5b6109da8133856113c6565b60008190508073ffffffffffffffffffffffffffffffffffffffff166108fc849081150290604051600060405180830381858888f19350505050158015610a25573d6000803e3d6000fd5b5082341115610a81573373ffffffffffffffffffffffffffffffffffffffff166108fc8434610a549190612974565b9081150290604051600060405180830381858888f19350505050158015610a7f573d6000803e3d6000fd5b505b50505050565b6007600082815260200190815260200160002060009054906101000a900460ff1615610ae8576040517f08c379a0000000000000000000000000000000000000000000000000000000008152600401610adf906127c8565b60405180910390fd5b6000604051806020016040528084815250905080600660008481526020019081526020016000206000820151816000019080519060200190610b2b929190611d2c565b5090505060016007600084815260200190815260200160002060006101000a81548160ff021916908315150217905550610b653383611622565b505050565b610b8583838360405180602001604052806000815250610f94565b505050565b6000806002600084815260200190815260200160002060009054906101000a900473ffffffffffffffffffffffffffffffffffffffff169050600073ffffffffffffffffffffffffffffffffffffffff168173ffffffffffffffffffffffffffffffffffffffff161415610c33576040517f08c379a0000000000000000000000000000000000000000000000000000000008152600401610c2a906126e8565b60405180910390fd5b80915050919050565b60008073ffffffffffffffffffffffffffffffffffffffff168273ffffffffffffffffffffffffffffffffffffffff161415610cad576040517f08c379a0000000000000000000000000000000000000000000000000000000008152600401610ca4906126c8565b60405180910390fd5b600360008373ffffffffffffffffffffffffffffffffffffffff1673ffffffffffffffffffffffffffffffffffffffff168152602001908152602001600020549050919050565b60086020528060005260406000206000915090505481565b606060018054610d1b90612a5e565b80601f0160208091040260200160405190810160405280929190818152602001828054610d4790612a5e565b8015610d945780601f10610d6957610100808354040283529160200191610d94565b820191906000526020600020905b815481529060010190602001808311610d7757829003601f168201915b5050505050905090565b6006602052806000526040600020600091509050806000018054610dc190612a5e565b80601f0160208091040260200160405190810160405280929190818152602001828054610ded90612a5e565b8015610e3a5780601f10610e0f57610100808354040283529160200191610e3a565b820191906000526020600020905b815481529060010190602001808311610e1d57829003601f168201915b5050505050905081565b6060600660008381526020019081526020016000206000018054610e6790612a5e565b80601f0160208091040260200160405190810160405280929190818152602001828054610e9390612a5e565b8015610ee05780601f10610eb557610100808354040283529160200191610ee0565b820191906000526020600020905b815481529060010190602001808311610ec357829003601f168201915b50505050509050919050565b610efe610ef7611227565b83836117f0565b5050565b3373ffffffffffffffffffffffffffffffffffffffff16610f2283610b8a565b73ffffffffffffffffffffffffffffffffffffffff1614610f78576040517f08c379a0000000000000000000000000000000000000000000000000000000008152600401610f6f90612608565b60405180910390fd5b8060086000848152602001908152602001600020819055505050565b610fa5610f9f611227565b836112e8565b610fe4576040517f08c379a0000000000000000000000000000000000000000000000000000000008152600401610fdb906127a8565b60405180910390fd5b610ff08484848461195d565b50505050565b6060611001826111bb565b611040576040517f08c379a000000000000000000000000000000000000000000000000000000000815260040161103790612768565b60405180910390fd5b600061104a6119b9565b9050600081511161106a5760405180602001604052806000815250611095565b80611074846119d0565b604051602001611085929190612500565b6040516020818303038152906040525b915050919050565b6000600560008473ffffffffffffffffffffffffffffffffffffffff1673ffffffffffffffffffffffffffffffffffffffff16815260200190815260200160002060008373ffffffffffffffffffffffffffffffffffffffff1673ffffffffffffffffffffffffffffffffffffffff16815260200190815260200160002060009054906101000a900460ff16905092915050565b60076020528060005260406000206000915054906101000a900460ff1681565b60007f01ffc9a7000000000000000000000000000000000000000000000000000000007bffffffffffffffffffffffffffffffffffffffffffffffffffffffff1916827bffffffffffffffffffffffffffffffffffffffffffffffffffffffff1916149050919050565b60008073ffffffffffffffffffffffffffffffffffffffff166002600084815260200190815260200160002060009054906101000a900473ffffffffffffffffffffffffffffffffffffffff1673ffffffffffffffffffffffffffffffffffffffff1614159050919050565b600033905090565b816004600083815260200190815260200160002060006101000a81548173ffffffffffffffffffffffffffffffffffffffff021916908373ffffffffffffffffffffffffffffffffffffffff160217905550808273ffffffffffffffffffffffffffffffffffffffff166112a283610b8a565b73ffffffffffffffffffffffffffffffffffffffff167f8c5be1e5ebec7d5bd14f71427d1e84f3dd0314c0f7b2291e5b200ac8c7c3b92560405160405180910390a45050565b60006112f3826111bb565b611332576040517f08c379a000000000000000000000000000000000000000000000000000000000815260040161132990612688565b60405180910390fd5b600061133d83610b8a565b90508073ffffffffffffffffffffffffffffffffffffffff168473ffffffffffffffffffffffffffffffffffffffff1614806113ac57508373ffffffffffffffffffffffffffffffffffffffff16611394846106bf565b73ffffffffffffffffffffffffffffffffffffffff16145b806113bd57506113bc818561109d565b5b91505092915050565b8273ffffffffffffffffffffffffffffffffffffffff166113e682610b8a565b73ffffffffffffffffffffffffffffffffffffffff161461143c576040517f08c379a000000000000000000000000000000000000000000000000000000000815260040161143390612748565b60405180910390fd5b600073ffffffffffffffffffffffffffffffffffffffff168273ffffffffffffffffffffffffffffffffffffffff1614156114ac576040517f08c379a00000000000000000000000000000000000000000000000000000000081526004016114a390612648565b60405180910390fd5b6114b7838383611b7d565b6114c260008261122f565b6001600360008573ffffffffffffffffffffffffffffffffffffffff1673ffffffffffffffffffffffffffffffffffffffff16815260200190815260200160002060008282546115129190612974565b925050819055506001600360008473ffffffffffffffffffffffffffffffffffffffff1673ffffffffffffffffffffffffffffffffffffffff168152602001908152602001600020600082825461156991906128ed565b92505081905550816002600083815260200190815260200160002060006101000a81548173ffffffffffffffffffffffffffffffffffffffff021916908373ffffffffffffffffffffffffffffffffffffffff160217905550808273ffffffffffffffffffffffffffffffffffffffff168473ffffffffffffffffffffffffffffffffffffffff167fddf252ad1be2c89b69c2b068fc378daa952ba7f163c4a11628f55a4df523b3ef60405160405180910390a4505050565b600073ffffffffffffffffffffffffffffffffffffffff168273ffffffffffffffffffffffffffffffffffffffff161415611692576040517f08c379a000000000000000000000000000000000000000000000000000000000815260040161168990612708565b60405180910390fd5b61169b816111bb565b156116db576040517f08c379a00000000000000000000000000000000000000000000000000000000081526004016116d2906125e8565b60405180910390fd5b6116e760008383611b7d565b6001600360008473ffffffffffffffffffffffffffffffffffffffff1673ffffffffffffffffffffffffffffffffffffffff168152602001908152602001600020600082825461173791906128ed565b92505081905550816002600083815260200190815260200160002060006101000a81548173ffffffffffffffffffffffffffffffffffffffff021916908373ffffffffffffffffffffffffffffffffffffffff160217905550808273ffffffffffffffffffffffffffffffffffffffff16600073ffffffffffffffffffffffffffffffffffffffff167fddf252ad1be2c89b69c2b068fc378daa952ba7f163c4a11628f55a4df523b3ef60405160405180910390a45050565b8173ffffffffffffffffffffffffffffffffffffffff168373ffffffffffffffffffffffffffffffffffffffff16141561185f576040517f08c379a000000000000000000000000000000000000000000000000000000000815260040161185690612668565b60405180910390fd5b80600560008573ffffffffffffffffffffffffffffffffffffffff1673ffffffffffffffffffffffffffffffffffffffff16815260200190815260200160002060008473ffffffffffffffffffffffffffffffffffffffff1673ffffffffffffffffffffffffffffffffffffffff16815260200190815260200160002060006101000a81548160ff0219169083151502179055508173ffffffffffffffffffffffffffffffffffffffff168373ffffffffffffffffffffffffffffffffffffffff167f17307eab39ab6107e8899845ad3d59bd9653f200f220920489ca2b5937696c3183604051611950919061258b565b60405180910390a3505050565b6119688484846113c6565b61197484848484611b82565b6119b3576040517f08c379a00000000000000000000000000000000000000000000000000000000081526004016119aa906125c8565b60405180910390fd5b50505050565b606060405180602001604052806000815250905090565b60606000821415611a18576040518060400160405280600181526020017f30000000000000000000000000000000000000000000000000000000000000008152509050611b78565b600082905060005b60008214611a4a578080611a3390612ac1565b915050600a82611a439190612943565b9150611a20565b60008167ffffffffffffffff811115611a8c577f4e487b7100000000000000000000000000000000000000000000000000000000600052604160045260246000fd5b6040519080825280601f01601f191660200182016040528015611abe5781602001600182028036833780820191505090505b5090505b60008514611b7157600182611ad79190612974565b9150600a85611ae69190612b0a565b6030611af291906128ed565b60f81b818381518110611b2e577f4e487b7100000000000000000000000000000000000000000000000000000000600052603260045260246000fd5b60200101907effffffffffffffffffffffffffffffffffffffffffffffffffffffffffffff1916908160001a905350600a85611b6a9190612943565b9450611ac2565b8093505050505b919050565b505050565b6000611ba38473ffffffffffffffffffffffffffffffffffffffff16611d19565b15611d0c578373ffffffffffffffffffffffffffffffffffffffff1663150b7a02611bcc611227565b8786866040518563ffffffff1660e01b8152600401611bee949392919061253f565b602060405180830381600087803b158015611c0857600080fd5b505af1925050508015611c3957506040513d601f19601f82011682018060405250810190611c3691906120d8565b60015b611cbc573d8060008114611c69576040519150601f19603f3d011682016040523d82523d6000602084013e611c6e565b606091505b50600081511415611cb4576040517f08c379a0000000000000000000000000000000000000000000000000000000008152600401611cab906125c8565b60405180910390fd5b805181602001fd5b63150b7a0260e01b7bffffffffffffffffffffffffffffffffffffffffffffffffffffffff1916817bffffffffffffffffffffffffffffffffffffffffffffffffffffffff191614915050611d11565b600190505b949350505050565b600080823b905060008111915050919050565b828054611d3890612a5e565b90600052602060002090601f016020900481019282611d5a5760008555611da1565b82601f10611d7357805160ff1916838001178555611da1565b82800160010185558215611da1579182015b82811115611da0578251825591602001919060010190611d85565b5b509050611dae9190611db2565b5090565b5b80821115611dcb576000816000905550600101611db3565b5090565b6000611de2611ddd84612848565b612823565b905082815260208101848484011115611dfa57600080fd5b611e05848285612a1c565b509392505050565b6000611e20611e1b84612879565b612823565b905082815260208101848484011115611e3857600080fd5b611e43848285612a1c565b509392505050565b600081359050611e5a816130d8565b92915050565b600081359050611e6f816130ef565b92915050565b600081359050611e8481613106565b92915050565b600081519050611e9981613106565b92915050565b600082601f830112611eb057600080fd5b8135611ec0848260208601611dcf565b91505092915050565b600082601f830112611eda57600080fd5b8135611eea848260208601611e0d565b91505092915050565b600081359050611f028161311d565b92915050565b600060208284031215611f1a57600080fd5b6000611f2884828501611e4b565b91505092915050565b60008060408385031215611f4457600080fd5b6000611f5285828601611e4b565b9250506020611f6385828601611e4b565b9150509250929050565b600080600060608486031215611f8257600080fd5b6000611f9086828701611e4b565b9350506020611fa186828701611e4b565b9250506040611fb286828701611ef3565b9150509250925092565b60008060008060808587031215611fd257600080fd5b6000611fe087828801611e4b565b9450506020611ff187828801611e4b565b935050604061200287828801611ef3565b925050606085013567ffffffffffffffff81111561201f57600080fd5b61202b87828801611e9f565b91505092959194509250565b6000806040838503121561204a57600080fd5b600061205885828601611e4b565b925050602061206985828601611e60565b9150509250929050565b6000806040838503121561208657600080fd5b600061209485828601611e4b565b92505060206120a585828601611ef3565b9150509250929050565b6000602082840312156120c157600080fd5b60006120cf84828501611e75565b91505092915050565b6000602082840312156120ea57600080fd5b60006120f884828501611e8a565b91505092915050565b6000806040838503121561211457600080fd5b600083013567ffffffffffffffff81111561212e57600080fd5b61213a85828601611ec9565b925050602061214b85828601611ef3565b9150509250929050565b60006020828403121561216757600080fd5b600061217584828501611ef3565b91505092915050565b6000806040838503121561219157600080fd5b600061219f85828601611ef3565b92505060206121b085828601611ef3565b9150509250929050565b6121c3816129a8565b82525050565b6121d2816129ba565b82525050565b60006121e3826128aa565b6121ed81856128c0565b93506121fd818560208601612a2b565b61220681612bf7565b840191505092915050565b600061221c826128b5565b61222681856128d1565b9350612236818560208601612a2b565b61223f81612bf7565b840191505092915050565b6000612255826128b5565b61225f81856128e2565b935061226f818560208601612a2b565b80840191505092915050565b60006122886032836128d1565b915061229382612c08565b604082019050919050565b60006122ab601c836128d1565b91506122b682612c57565b602082019050919050565b60006122ce6024836128d1565b91506122d982612c80565b604082019050919050565b60006122f1601d836128d1565b91506122fc82612ccf565b602082019050919050565b60006123146024836128d1565b915061231f82612cf8565b604082019050919050565b60006123376019836128d1565b915061234282612d47565b602082019050919050565b600061235a602c836128d1565b915061236582612d70565b604082019050919050565b600061237d6038836128d1565b915061238882612dbf565b604082019050919050565b60006123a0602a836128d1565b91506123ab82612e0e565b604082019050919050565b60006123c36029836128d1565b91506123ce82612e5d565b604082019050919050565b60006123e66020836128d1565b91506123f182612eac565b602082019050919050565b6000612409602c836128d1565b915061241482612ed5565b604082019050919050565b600061242c6029836128d1565b915061243782612f24565b604082019050919050565b600061244f602f836128d1565b915061245a82612f73565b604082019050919050565b60006124726021836128d1565b915061247d82612fc2565b604082019050919050565b60006124956031836128d1565b91506124a082613011565b604082019050919050565b60006124b86021836128d1565b91506124c382613060565b604082019050919050565b60006124db601d836128d1565b91506124e6826130af565b602082019050919050565b6124fa81612a12565b82525050565b600061250c828561224a565b9150612518828461224a565b91508190509392505050565b600060208201905061253960008301846121ba565b92915050565b600060808201905061255460008301876121ba565b61256160208301866121ba565b61256e60408301856124f1565b818103606083015261258081846121d8565b905095945050505050565b60006020820190506125a060008301846121c9565b92915050565b600060208201905081810360008301526125c08184612211565b905092915050565b600060208201905081810360008301526125e18161227b565b9050919050565b600060208201905081810360008301526126018161229e565b9050919050565b60006020820190508181036000830152612621816122c1565b9050919050565b60006020820190508181036000830152612641816122e4565b9050919050565b6000602082019050818103600083015261266181612307565b9050919050565b600060208201905081810360008301526126818161232a565b9050919050565b600060208201905081810360008301526126a18161234d565b9050919050565b600060208201905081810360008301526126c181612370565b9050919050565b600060208201905081810360008301526126e181612393565b9050919050565b60006020820190508181036000830152612701816123b6565b9050919050565b60006020820190508181036000830152612721816123d9565b9050919050565b60006020820190508181036000830152612741816123fc565b9050919050565b600060208201905081810360008301526127618161241f565b9050919050565b6000602082019050818103600083015261278181612442565b9050919050565b600060208201905081810360008301526127a181612465565b9050919050565b600060208201905081810360008301526127c181612488565b9050919050565b600060208201905081810360008301526127e1816124ab565b9050919050565b60006020820190508181036000830152612801816124ce565b9050919050565b600060208201905061281d60008301846124f1565b92915050565b600061282d61283e565b90506128398282612a90565b919050565b6000604051905090565b600067ffffffffffffffff82111561286357612862612bc8565b5b61286c82612bf7565b9050602081019050919050565b600067ffffffffffffffff82111561289457612893612bc8565b5b61289d82612bf7565b9050602081019050919050565b600081519050919050565b600081519050919050565b600082825260208201905092915050565b600082825260208201905092915050565b600081905092915050565b60006128f882612a12565b915061290383612a12565b9250827fffffffffffffffffffffffffffffffffffffffffffffffffffffffffffffffff0382111561293857612937612b3b565b5b828201905092915050565b600061294e82612a12565b915061295983612a12565b92508261296957612968612b6a565b5b828204905092915050565b600061297f82612a12565b915061298a83612a12565b92508282101561299d5761299c612b3b565b5b828203905092915050565b60006129b3826129f2565b9050919050565b60008115159050919050565b60007fffffffff0000000000000000000000000000000000000000000000000000000082169050919050565b600073ffffffffffffffffffffffffffffffffffffffff82169050919050565b6000819050919050565b82818337600083830152505050565b60005b83811015612a49578082015181840152602081019050612a2e565b83811115612a58576000848401525b50505050565b60006002820490506001821680612a7657607f821691505b60208210811415612a8a57612a89612b99565b5b50919050565b612a9982612bf7565b810181811067ffffffffffffffff82111715612ab857612ab7612bc8565b5b80604052505050565b6000612acc82612a12565b91507fffffffffffffffffffffffffffffffffffffffffffffffffffffffffffffffff821415612aff57612afe612b3b565b5b600182019050919050565b6000612b1582612a12565b9150612b2083612a12565b925082612b3057612b2f612b6a565b5b828206905092915050565b7f4e487b7100000000000000000000000000000000000000000000000000000000600052601160045260246000fd5b7f4e487b7100000000000000000000000000000000000000000000000000000000600052601260045260246000fd5b7f4e487b7100000000000000000000000000000000000000000000000000000000600052602260045260246000fd5b7f4e487b7100000000000000000000000000000000000000000000000000000000600052604160045260246000fd5b6000601f19601f8301169050919050565b7f4552433732313a207472616e7366657220746f206e6f6e20455243373231526560008201527f63656976657220696d706c656d656e7465720000000000000000000000000000602082015250565b7f4552433732313a20746f6b656e20616c7265616479206d696e74656400000000600082015250565b7f596f752063616e27742073616c65207468652054435420796f7520646f6e277460008201527f206f776e00000000000000000000000000000000000000000000000000000000602082015250565b7f546865205443542073686f756c6420626520757020666f722073616c65000000600082015250565b7f4552433732313a207472616e7366657220746f20746865207a65726f2061646460008201527f7265737300000000000000000000000000000000000000000000000000000000602082015250565b7f4552433732313a20617070726f766520746f2063616c6c657200000000000000600082015250565b7f4552433732313a206f70657261746f7220717565727920666f72206e6f6e657860008201527f697374656e7420746f6b656e0000000000000000000000000000000000000000602082015250565b7f4552433732313a20617070726f76652063616c6c6572206973206e6f74206f7760008201527f6e6572206e6f7220617070726f76656420666f7220616c6c0000000000000000602082015250565b7f4552433732313a2062616c616e636520717565727920666f7220746865207a6560008201527f726f206164647265737300000000000000000000000000000000000000000000602082015250565b7f4552433732313a206f776e657220717565727920666f72206e6f6e657869737460008201527f656e7420746f6b656e0000000000000000000000000000000000000000000000602082015250565b7f4552433732313a206d696e7420746f20746865207a65726f2061646472657373600082015250565b7f4552433732313a20617070726f76656420717565727920666f72206e6f6e657860008201527f697374656e7420746f6b656e0000000000000000000000000000000000000000602082015250565b7f4552433732313a207472616e73666572206f6620746f6b656e2074686174206960008201527f73206e6f74206f776e0000000000000000000000000000000000000000000000602082015250565b7f4552433732314d657461646174613a2055524920717565727920666f72206e6f60008201527f6e6578697374656e7420746f6b656e0000000000000000000000000000000000602082015250565b7f4552433732313a20617070726f76616c20746f2063757272656e74206f776e6560008201527f7200000000000000000000000000000000000000000000000000000000000000602082015250565b7f4552433732313a207472616e736665722063616c6c6572206973206e6f74206f60008201527f776e6572206e6f7220617070726f766564000000000000000000000000000000602082015250565b7f54686973205443542068617320616c7265616479206265656e2063726561746560008201527f6400000000000000000000000000000000000000000000000000000000000000602082015250565b7f596f75206e65656420746f206861766520656e6f756768206d6f6e6579000000600082015250565b6130e1816129a8565b81146130ec57600080fd5b50565b6130f8816129ba565b811461310357600080fd5b50565b61310f816129c6565b811461311a57600080fd5b50565b61312681612a12565b811461313157600080fd5b5056fea26469706673582212206211ad58ee85ee7e6d55ec8014c643ebf9a1d016e9516bcec725f02a859c7cfd64736f6c63430008040033",
  "linkReferences": {},
  "deployedLinkReferences": {}
}